S0180000496E74656C6C6967656E74486F7573652E7372656389
S11300001BC1000039C1000037C1000035C1000028
S113001033C1000031C100002FC100002DC1000018
S11300202BC1000029C1000027C1000025C1000028
S113003023C1000021C100001FC100001DC1000038
S11300401BC1000070C6000017C1000015C10000EC
S113005013C1000011C100000FC100000DC1000058
S11300600BC1000009C1000007C1000005C1000068
S113007003C10000C8C10000FFC00000FDC00000B3
S1130080FBC00000F9C00000F7C00000F5C000008C
S1130090F3C00000F1C00000EFC00000EDC000009C
S11300A0EBC00000E9C00000E7C00000E5C00000AC
S11300B0E3C00000E1C00000DFC00000DDC00000BC
S11300C0DBC00000D9C00000D7C00000D5C00000CC
S11300D0D3C00000D1C00000CFC00000CDC00000DC
S11300E0CBC0000008000000BE922449123EABAA17
S11300F0AA2ABECDCCCC4C3E00000080BEABAAAA3E
S1130100AA3E00000000BF000000803F0000000085
S113011000084178D3BB4387D1133D190E3CC3BDBE
S11301204282AD2B3E68EC8276BED98FE1A93E4C6B
S113013080EFFFBE01C4FF7F3F00000000000040CD
S11301407A10F35A00A0724E18090010A5D4E800E2
S113015000E87648170000E40B54020000CA9A3BFA
S1130160000000E1F5050000809698000000404280
S11301700F000000A086010000001027000000000E
S1130180E803000000006400000000000A00000012
S113019000000100000000002C76D888DC674F08BE
S11301A023DFC1DFAE59E1B1B796E5E3E453C63AC4
S11301B0E651997696E8E6C28426EB898C9B62ED3B
S11301C0407C6FFCEFBC9C9F40F2BAA56FA5F490F5
S11301D0055A2AF75C936B6CF9676DC11BFCE0E46C
S11301E00D47FEF520E6B500D0ED902E03009435C2
S11301F077050080841E080000204E0A000000C815
S11302000C333333330F986E12831141EF8D211465
S1130210893BE65516CFFEE6DB18D1844B381BF735
S11302207C1D901DA4BBE424203284725E228100D4
S1130230C9F124ECA1E53D2711241FBECFEFD1E283
S1130240DEBFCDBF00E00CBF12E0A0E0B2E0EAE800
S1130250F8E100E00BBF02C007900D92A239B1078C
S1130260D9F722E0A2E9B2E001C01D92A839B20791
S1130270E1F75BD10C94430CC3CE139A000013989E
S11302800895CF93C82F662311F0169A01C01698CB
S11302901598089A099A0A9A0C9A1498129811981F
S11302A01098CC230CF4149AC6FD129AC5FD119A29
S11302B0C4FD109AE2DF1498129811981098C3FDA7
S11302C0149AC2FD129AC1FD119AC0FD109AD5DF8D
S11302D0109A119A129A149ACF910895882311F0C2
S11302E0169A01C01698159A089809980A980C98B5
S11302F0139A0000009B02C080E101C080E00199D4
S11303008062029980640499806813980000139AAB
S113031000000099816001998260029984600499C7
S113032088601398089580E0D9DF8823E4F300C03F
S113033000C080E0D3CF0895CF93C82FF4DF60E0EE
S11303408C2F9FDFCF910895611103C08058F4CFA3
S113035008958054F1CF089581E0EECF0895CF93AE
S1130360C82FE1DFCA3041F4803410F080E001C0CE
S113037080E48058E1DF03C061E08C2F82DFCF91FD
S11303800895CF93DF93EC012196FC0180818823AB
S113039021F0E5DF89918111FCCFDF91CF910895A0
S11303A0CF93C82F0E9A0D9A0B9A089A099A0A9A13
S11303B00C9A8FE99FE00197F1F700C00000119AB1
S11303C0109A5BDF81EE94E00197F1F700C0000022
S11303D054DF95E19A95F1F700004FDF85E18A95A6
S11303E0F1F70000109849DF95E19A95F1F70000C4
S11303F088E2A2DF88E0A0DFAFDF86E09DDF8C2FFC
S11304009BDFCF9108951F920F920FB60F92112484
S11304100BB60F92CF92DF92EF92FF920F931F933E
S11304202F933F934F935F936F937F938F939F93F8
S1130430AF93BF93EF93FF93CF93DF93CDB7DEB723
S11304402797DEBFCDBF609178007091790080E07E
S113045090E0DFD19B01AC0160E070E080E894E4BF
S113046070D120E030E040E85FE306D120E030E4E2
S11304704CE156E4A1D260D26B017C018FE090DFA5
S11304806BDF29E537E44CEB53E3C701B60194D2A3
S1130490A701960191D223E73FE745E759E3EDD061
S11304A0A701960189D22BEE3FEF43E95AE3E5D049
S11304B09B01AC0160E070E080E89FE342D123E35C
S11304C033E948E853E4D8D08E010F5F1F4F22E090
S11304D030E044E050E0A5D481E192E052DFC8016D
S11304E050DF88E192E04DDF27960FB6F894DEBF27
S11304F00FBECDBFDF91CF91FF91EF91BF91AF912F
S11305009F918F917F916F915F914F913F912F9127
S11305101F910F91FF90EF90DF90CF900F900BBE43
S11305200F900FBE0F901F90189592D0F6D322D43F
S113053080E305D030D478941FD333D3FDCFCF9349
S1130540C82F8CE02DDF08DFC33361F128F4C133F9
S113055049F0C233D1F04DC0C43359F1C53309F465
S113056041C047C08AE192E00CDF61E080E0ECDE4C
S113057084E292E006DF60E08AE0E6DE8DE292E06B
S113058000DF81E38093100246C084E392E0F9DE49
S113059061E080E0D9DE8EE392E0F3DE82E38093D3
S11305A0100239C089E492E0ECDE83E38093100208
S11305B032C081E592E0E5DE60E088E0C5DE89E5F1
S11305C092E0DFDE61E080E0BFDE82E692E0D9DE29
S11305D061E08AE0B9DE89E692E0D3DE84E38093C9
S11305E0100219C080E792E0CCDE85E3809310020C
S11305F012C089E792E0C5DE61E080E0A5DE81E813
S113060092E0BFDE61E08AE09FDE88E892E0B9DE36
S113061080E380931002CF910895E0ECF0E09081A4
S113062095FFFDCF8093C6000895CF93E0ECF0E0F2
S113063080818823ECF7C091C600CA3029F08C2F42
S1130640ECDF8C2F90E002C08FEF9FEFCF910895E5
S1130650E2E9F2E080E092E09383828391838083F5
S11306601092C50087E68093C40088E18093C1009E
S113067086E08093C20008955058BB27AA270ED065
S11306801CC10DD130F012D120F031F49F3F11F490
S11306901EF402C10EF4E095E7FBF8C0E92F1ED169
S11306A080F3BA17620773078407950718F071F48B
S11306B09EF536C10EF4E0950B2EBA2FA02D0B013A
S11306C0B90190010C01CA01A0011124FF27591B93
S11306D099F0593F50F4503E68F11A16F040A22F99
S11306E0232F342F4427585FF3CF4695379527950A
S11306F0A795F0405395C9F77EF41F16BA0B620B09
S1130700730B840BBAF09150A1F0FF0FBB1F661F4F
S1130710771F881FC2F70EC0BA0F621F731F841F92
S113072048F4879577956795B795F7959E3F08F0B8
S1130730B3CF9395880F08F09927EE0F9795879577
S113074008950CD0BAC0B2D040F0A9D030F021F452
S11307505F3F19F09BC05111E4C09EC0BFD098F315
S11307609923C9F35523B1F3951B550BBB27AA272E
S113077062177307840738F09F5F5F4F220F331FA0
S1130780441FAA1FA9F333D00E2E3AF0E0E830D06C
S113079091505040E695001CCAF729D0FE2F27D06F
S11307A0660F771F881FBB1F261737074807AB073D
S11307B0B0E809F0BB0B802DBF01FF2793585F4FB2
S11307C02AF09E3F510568F061C0ABC05F3FECF377
S11307D0983EDCF3869577956795B795F7959F5F77
S11307E0C9F7880F911D9695879597F90895E1E0CB
S11307F0660F771F881FBB1F621773078407BA072A
S113080020F0621B730B840BBA0BEE1F88F7E09584
S11308100895E89409C097FB3EF4909580957095EF
S113082061957F4F8F4F9F4F9923A9F0F92F96E938
S1130830BB279395F695879577956795B795F111AD
S1130840F8CFFAF4BB0F11F460FF1BC06F5F7F4F4A
S11308508F4F9F4F16C0882311F096E911C077235C
S113086021F09EE8872F762F05C0662371F096E865
S1130870862F70E060E02AF09A95660F771F881F34
S1130880DAF7880F9695879597F9089597F99F67F2
S113089080E870E060E008959FEF80EC0895002404
S11308A00A941616170618060906089500240A94D1
S11308B012161306140605060895092E0394000C57
S11308C011F4882352F0BB0F40F4BF2B11F460FFE6
S11308D004C06F5F7F4F8F4F9F4F089557FD90580F
S11308E0440F551F59F05F3F71F04795880F97FBF0
S11308F0991F61F09F3F79F08795089512161306AA
S11309001406551FF2CF4695F1DF08C016161706D8
S11309101806991FF1CF869571056105089408950D
S1130920E894BB2766277727CB0197F908950EF043
S1130930A6C0B2CF6894AACFD9DFC8F39923D1F364
S1130940C6F3DF93CF931F930F93FF92C92FDD2735
S113095088232AF02197660F771F881FDAF720E093
S113096030E040E85FEB9FE3883920F0803E30F0D0
S113097021968F7782DEE4EEF0E003C07EDEE1E1D3
S1130980F1E08BD08B01BE01EC01FB2E6F57710996
S11309907595771F880B990B3EDF28E132E741E319
S11309A05FE316D0AF2D9801AE01FF900F911F9118
S11309B0CF91DF9173DE81CF0BD07FCF70DF28F032
S11309C075DF18F0952309F061CF66CF1124A9CF04
S11309D085DFA0F3959FD1F3950F50E0551F629FDB
S11309E0F001729FBB27F00DB11D639FAA27F00D84
S11309F0B11DAA1F649F6627B00DA11D661F829FAB
S1130A002227B00DA11D621F739FB00DA11D621F8F
S1130A10839FA00D611D221F749F3327A00D611DAC
S1130A20231F849F600D211D822F762F6A2F11248E
S1130A309F5750408AF0E1F088234AF0EE0FFF1FE1
S1130A40BB1F661F771F881F91505040A9F79E3F18
S1130A50510570F01BCF65CF5F3FECF3983EDCF39C
S1130A60869577956795B795F795E7959F5FC1F755
S1130A70FE2B880F911D9695879597F908959F3FB2
S1130A8031F0915020F4879577956795B795880F45
S1130A90911D9695879597F90895DF93CF931F93AA
S1130AA00F93FF92EF92DF927B018C01689405C053
S1130AB0DA2EEF018DDFFE01E894A59125913591A1
S1130AC045915591AEF3EF01E9DDFE019701A801CF
S1130AD0DA9479F7DF90EF90FF900F911F91CF9107
S1130AE0DF9108958FEF88B980910E0290910F02E3
S1130AF082309105B1F01CF4019739F036C083308F
S1130B009105D9F0049729F130C08EEF88B980910E
S1130B100E0290910F02019690930F0280930E02A1
S1130B2008958DEF88B980910E0290910F0201967D
S1130B3090930F0280930E0208958BEF88B98091F1
S1130B400E0290910F02019690930F0280930E0271
S1130B50089587EF88B980910E0290910F02019653
S1130B6090930F0280930E02089581E090E0909399
S1130B700F0280930E02089526B130E0A90140953A
S1130B805095407F5527452B59F04FEF81EE94E067
S1130B90415080409040E1F700C00000822F932F25
S1130BA008958E3D910509F468C06CF48D37910564
S1130BB009F47AC08B3B910509F496C08B379105F3
S1130BC009F0AAC0A3C08D3E910521F18E3E910586
S1130BD029F08B3E910509F09FC038C081E390E075
S1130BE052D180911002803319F482E390E0A7DCA3
S1130BF080911002823309F4E5D08091100284338D
S1130C0009F08AC04FEF50E06FEF70E08FEF90E093
S1130C10FBC0089582E390E036D1809110028033C6
S1130C2019F485E390E08BDC80911002823309F49F
S1130C30DBD080911002843309F06EC040E050E0B4
S1130C4064E670E08FEF90E0DFC0089583E390E006
S1130C501AD180911002833319F484E390E06FDC9D
S1130C6080911002843309F057C04FEF50E060E0E8
S1130C7070E080E090E0C8C0089584E390E003D180
S1130C8080911002803319F485E390E058DC809160
S1130C901002843309F040C046E950E060E070E09F
S1130CA08FEF90E0B1C0089580E390E0ECD08091A4
S1130CB01002813319F480E390E041DC809110024A
S1130CC0823319F480E390E03ADC8091100283339C
S1130CD019F482E390E033DC809110028433E1F470
S1130CE083E390E02CCC089589E390E0CCD080910C
S1130CF01002803319F481E390E021DC809110022A
S1130D00823351F483E390E01ACC089583E290E0B7
S1130D10BAD080E390E013CC089587B18F6087B98F
S1130D2080EF88B908951F920F920FB60F92112485
S1130D300BB60F922F933F934F935F936F937F93D1
S1130D408F939F93AF93BF93EF93FF93CBDEFF916A
S1130D50EF91BF91AF919F918F917F916F915F912F
S1130D604F913F912F910F900BBE0F900FBE0F909C
S1130D701F901895E1E8F0E080818C608083EFE6B5
S1130D80F0E080818260808384E39CE0909389001A
S1130D90809388000895E0E9F0E080818062808398
S1130DA08081806880838081886080838081816085
S1130DB08083E1E9F0E080818860808380818360C2
S1130DC0808308958DB188638DB98FEF90E09093FF
S1130DD099008093980090939B0080939A0090933D
S1130DE09D0080939C0008958DB1877C8DB98DB151
S1130DF01F928F938FE892E09F938F9331D00F903F
S1130E000F900F900F9008959093990080939800FD
S1130E1070939B0060939A0050939D0040939C00B4
S1130E200895EF920F931F93CF93DF93E80147FD4B
S1130E3002C034E001C034E1042E000C550B57FF0E
S1130E4003C0519541955109E32E022F242FAE0181
S1130E501CD2CE01DF91CF911F910F91EF90089595
S1130E60CF93DF93CDB7DEB7AE014A5F5F4FFA0190
S1130E7061917191AF01809194029091950208D093
S1130E80DF91CF910895609194027091950261C4AD
S1130E902F923F924F925F926F927F928F929F9286
S1130EA0AF92BF92CF92DF92EF92FF920F931F9374
S1130EB0CF93DF93CDB7DEB72B970FB6F894DEBF91
S1130EC00FBECDBF6C017B018A01FC011782168223
S1130ED0838181FFBFC1CE0101963C01F60193815C
S1130EE0F70193FD859193FF81917F01882309F494
S1130EF0ADC1853239F493FD859193FF81917F01D2
S1130F00853221F4B60190E024D4E8CF912C212C31
S1130F10312CFFE1F315D8F08B3279F038F48032BC
S1130F2079F08332A1F4232D20611DC08D3261F04C
S1130F30803369F4232D216016C0832D8260382EFE
S1130F40E32DE4603E2E2AC0F32DF8601DC037FC6B
S1130F502DC020ED280F2A3040F08E32B9F436FC33
S1130F6075C1232D2064322E19C036FE06C08AE0D6
S1130F70989E200D1124922E11C0EAE02E9E200D81
S1130F801124222EF32DF0623F2E08C08C3621F45A
S1130F90832D8068382E02C0883641F4F70193FD12
S1130FA0859193FF81917F018111B3CF982F9F7D0C
S1130FB09554933028F40C5F1F4F9FE399830DC021
S1130FC0833631F0833771F0833509F055C020C082
S1130FD0F801808189830E5F1F4F88248394912CAC
S1130FE0530112C02801F2E04F0E511CF801A080F9
S1130FF0B18036FE03C0692D70E002C06FEF7FEF51
S1131000C5019CD34C018201F32DFF773F2E15C0FF
S1131010280122E0420E511CF801A080B18036FE66
S113102003C0692D70E002C06FEF7FEFC5017BD371
S11310304C01F32DF0683F2E820133FC19C0822D40
S113104090E088169906A0F4B60180E290E081D37E
S11310502A94F5CFF50137FC859137FE81915F0124
S1131060B60190E076D321102A9421E0821A9108E7
S11310708114910479F7E1C0843611F0893639F589
S1131080F80137FE07C060817181828193810C5F12
S11310901F4F08C060817181072E000C880B990BCB
S11310A00E5F1F4FF32DFF763F2E97FF09C09095DB
S11310B08095709561957F4F8F4F9F4FF0683F2EBD
S11310C02AE030E0A30181D3882E861844C08537F6
S11310D031F4232D2F7EB22E2AE030E025C0932D4B
S11310E0997FB92E8F36C1F018F4883579F0AEC0E7
S11310F0803719F0883721F0A9C0E92FE061BE2EAE
S1131100B4FE0DC0FB2DF460BF2E09C034FE0AC02E
S1131110292F2660B22E06C028E030E005C020E169
S113112030E002C020E132E0F801B7FE07C0608180
S11311307181828193810C5F1F4F06C06081718130
S113114080E090E00E5F1F4FA3013FD3882E8618E6
S1131150FB2DFF773F2E36FE0DC0232D2E7FA22EB2
S1131160891458F434FE0BC032FC09C0832D8E7EE2
S1131170A82E05C0B82CA32C03C0B82C01C0B92CD0
S1131180A4FE0FC0FE01E80DF11D8081803321F41F
S11311909A2D997EA92E09C0A2FE06C0B394B394D9
S11311A004C08A2D867809F0B394A3FC10C0A0FE75
S11311B006C0B21480F4280C922C9B180DC0B214F3
S11311C058F4B60180E290E0C4D2B394F8CFB214DC
S11311D018F42B1802C0982C212CA4FE0FC0B601C1
S11311E080E390E0B6D2A2FE16C0A1FC03C088E75B
S11311F090E002C088E590E0B6010CC08A2D8678A4
S113120051F0A1FE02C08BE201C080E2A7FC8DE296
S1131210B60190E09ED2891430F4B60180E390E0E8
S113122098D29A94F8CF8A94F301E80DF11D808145
S1131230B60190E08ED28110F6CF222009F44ECE72
S1131240B60180E290E085D22A94F7CFF601868138
S1131250978102C08FEF9FEF2B960FB6F894DEBFF5
S11312600FBECDBFDF91CF911F910F91FF90EF90F3
S1131270DF90CF90BF90AF909F908F907F906F90B2
S11312805F904F903F902F9008958F929F92AF92CE
S1131290BF92CF92DF92EF92FF920F931F93CF935F
S11312A0DF93CDB7DEB729970FB6F894DEBF0FBE34
S11312B0CDBF6A01122FB02E2BE3201720F0FF249C
S11312C0F394F00E02C02CE3F22E0F2D27E0AE01B2
S11312D04F5F5F4F50D1BC014981842F89708130A9
S11312E031F0E1FC06C0E0FE06C090E205C09DE2DC
S11312F003C09BE201C090E05E2D507143FF3CC0EF
S1131300911102C083E001C084E0811718F4212FF9
S1131310281B01C020E051110BC0F601822F30E2DE
S1131320882319F031938150FBCFC20ED11C20E0E9
S1131330992329F0D6019C93F60131966F01C601D9
S11313400396E2FE0AC03EE4D6013C9341E41196C2
S11313504C93119712963C9306C03EE6F6013083F7
S113136041E641833283FC01322F40E2332309F406
S113137042C041933150FACF42FF44C0911102C0A0
S113138083E001C084E0811718F4212F281B01C0D9
S113139020E051110BC0F601822F30E2882319F0AE
S11313A031938150FBCFC20ED11C20E0992329F048
S11313B0D6019C93F60131966F01C6010396E2FEB5
S11313C00BC039E4D6013C933EE411963C9311974B
S11313D036E412963C9307C039E6F60130833EE6C4
S11313E0318336E63283FC01322F40E2332319F095
S11313F041933150FBCFFC01E20FF11D10828EEFBF
S11314009FEFA6C021E030E0911102C020E030E05F
S1131410161617061CF4FB01319602C0E1E0F0E059
S11314202E0F3F1FBB2021F0EB2DF0E0319602C0C0
S1131430E0E0F0E02E0F3F1FE12FF0E02E173F0712
S11314401CF4121B212F01C020E08E2D887159F449
S1131450F601822F30E2882319F031938150FBCFBB
S1131460C20ED11C20E0992329F0D6019C93F601E9
S113147031966F0151110BC0F601822F90E388233E
S113148019F091938150FBCFC20ED11C20E00F2D97
S1131490060F9A81342F307144FF03C0913309F44D
S11314A00150101624F4093018F008E001C001E0DE
S11314B0AB0177FF02C040E050E0FB01E41BF50BF9
S11314C0A1E0B0E0AC0FBD1FEA0FFB1F8EE2A82E17
S11314D04B01801A91080B2D10E01195019511090B
S11314E04F3FBFEF5B0721F4D601AC9211966D011B
S11314F0641775072CF08416950614F4818101C0D5
S113150080E3415051093196D60111967D0140176F
S1131510510724F0D6018C936701E2CF6417750755
S113152039F4963320F4953319F4311101C081E371
S1131530F6018083F701822F90E2882319F09193BA
S11315408150FBCFF701E20FF11D108280E090E0A3
S113155029960FB6F894DEBF0FBECDBFDF91CF91B1
S11315601F910F91FF90EF90DF90CF90BF90AF90BD
S11315709F908F900895283008F027E03327DA01F0
S1131580990F311D87FD916000966105710539F44D
S113159032602E5F3D9330E32A95E1F708959F3F33
S11315A030F080387105610509F03C5F3C5F3D9384
S11315B0913008F08068911DDF93CF931F930F93B0
S11315C0FF92EF92192F987F9695E92F969596950D
S11315D0E90FFF27E856FE4F99273327EE24FF240F
S11315E0A701E70105900894079428F4360FE71E35
S11315F0F81E491F511D660F771F881F991F0694F7
S1131600A1F70590079428F4E70EF81E491F561F0A
S1131610C11D770F881F991F661F0694A1F70590B7
S1131620079428F4F80E491F561FC71FD11D880FB1
S1131630991F661F771F0694A1F70590079420F45D
S1131640490F561FC71FD81F990F661F771F881F82
S11316500694A9F784911095177041F0D695C79513
S113166057954795F794E7941A95C1F7EEE3F1E09F
S113167068941590159135916591959105907FE247
S11316807395E118F10A430B560BC90BD009C0F747
S1131690E10CF11E431F561FC91FD01D7EF4703389
S11316A011F48A95E6CFE894015030F0080F0AF45B
S11316B00027021708F4202F2395022F7A3328F0ED
S11316C079E37D932A95E9F710C07D932A9589F6ED
S11316D0069497956795379517951794E118F10A2D
S11316E0430B560BC90BD00998F023957E91739543
S11316F07A3308F070E37C932013B8F77E9170611D
S11317007D9330F0839571E37D9370E32A95E1F73F
S11317101124EF90FF900F911F91CF91DF919927A2
S113172087FD90950895FC0105906150704001106B
S1131730D8F7809590958E0F9F1F0895FC016150F6
S1131740704001900110D8F7809590958E0F9F1FDF
S113175008950F931F93CF93DF93FB01238121FD02
S113176003C08FEF9FEF2CC022FF16C04681578124
S1131770248135814217530744F4A081B1819D012E
S11317802F5F3F4F318320838C93268137812F5FD6
S11317903F4F3783268314C08B01EC01FB01008487
S11317A0F185E02D1995892BE1F6D80116968D91D6
S11317B09C911797019617969C938E931697CE013A
S11317C0DF91CF911F910F910895FA01AA27283034
S11317D051F1203181F1E8946F936E7F6E5F7F4FFA
S11317E08F4F9F4FAF4FB1E03ED0B4E03CD0670F76
S11317F0781F891F9A1FA11D680F791F8A1F911DC9
S1131800A11D6A0F711D811D911DA11D20D009F418
S113181068943F912AE0269F11243019305D31935A
S1131820DEF6CF010895462F4770405D4193B3E043
S11318300FD0C9F7F6CF462F4F70405D4A3318F0EA
S1131840495D31FD4052419302D0A9F7EACFB4E09B
S1131850A6959795879577956795BA95C9F7009753
S11318606105710508959B01AC010A2E06945795F4
S1131870479537952795BA95C9F7620F731F841F4B
S10D1880951FA01D0895F894FFCFF2
S113188A00000003000000000D031503000001001E
S113189A3054656D703A20004300333D57696E64D5
S11318AA6F777300343D47617261676500303D426A
S11318BA61636B00313D5475726E204F6E00323D88
S11318CA5475726E204F666600333D436F6C6F72B7
S11318DA00313D576869746500323D59656C6C6F17
S11318EA7700333D426C756500343D50696E6B0078
S11318FA313D41646A75737400313D4C696768749B
S113190A00323D54656D7000393D4E65787400258A
S105191A640063
S9030000FC
