:10000000E9C0000006C1000004C1000002C10000F8
:1000100000C10000FEC00000FCC00000FAC00000EB
:10002000F8C00000F6C00000F4C00000F2C00000FC
:10003000F0C00000EEC00000ECC00000EAC000000C
:10004000E8C0000037C30000E4C00000E2C00000C8
:10005000E0C00000DEC00000DCC00000DAC000002C
:10006000D8C00000D6C00000D4C00000D2C000003C
:10007000D0C00000CEC00000CCC00000CAC000004C
:10008000C8C00000C6C00000C4C00000C2C000005C
:10009000C0C00000BEC00000BCC00000BAC000006C
:1000A000B8C00000B6C00000B4C00000B2C000007C
:1000B000B0C00000AEC00000ACC00000AAC000008C
:1000C000A8C00000A6C00000A4C00000A2C000009C
:1000D000A0C000009EC000009CC000009AC00000AC
:1000E00098C0000050035303530353033D035303CD
:1000F000FB02EB0253035303530353035303530312
:10010000530353035303530353035303530353033F
:10011000530353035303530353035303530353032F
:10012000530353035303530353035303530353031F
:10013000530353035303530353035303530353030F
:1001400053035303530353035303530353035303FF
:1001500053035303530353035303530353035303EF
:10016000530353034C035303530353032703530312
:10017000F702E70253035303530353035303530399
:1001800053035303530353035303530353035303BF
:1001900053035303530353035303530353035303AF
:1001A00053035303480353035303530339035303C4
:1001B000F302E30253035303530353035303530361
:1001C0005303530344035303530353031C035303C5
:1001D000EF02D70211241FBECFEFD1E2DEBFCDBFA9
:1001E00000E00CBF12E0A0E0B2E0EAEBF7E000E0D4
:1001F0000BBF02C007900D92AE37B107D9F722E0CE
:10020000AEE7B2E001C01D92A438B207E1F72CD1ED
:10021000D2C2F6CE139A000013980895CF93C82F38
:10022000662311F0169A01C016981598089A099A33
:100230000A9A0C9A1498129811981098CC230CF4DE
:10024000149AC6FD129AC5FD119AC4FD109AE2DFF8
:100250001498129811981098C3FD149AC2FD129A1E
:10026000C1FD119AC0FD109AD5DF109A119A129A09
:10027000149ACF910895882311F0169A01C0169808
:10028000159A089809980A980C98139A0000009BF0
:1002900002C080E101C080E001998062029980641F
:1002A0000499806813980000139A000000998160F7
:1002B0000199826002998460049988601398089576
:1002C00080E0D9DF8823E4F300C000C080E0D3CF12
:1002D0000895CF93C82FF4DF60E08C2F9FDFCF917C
:1002E0000895611103C08058F4CF08958054F1CF70
:1002F000089581E0EECF0895CF93C82FE1DFCA3093
:1003000041F4803410F080E001C080E48058E1DFE7
:1003100003C061E08C2F82DFCF910895CF93DF93EC
:10032000EC012196FC018081882321F0E5DF899191
:100330008111FCCFDF91CF910895CF93C82F0E9AF2
:100340000D9A0B9A089A099A0A9A0C9A8FE99FE0DB
:100350000197F1F700C00000119A109A5BDF81EE5F
:1003600094E00197F1F700C0000054DF95E19A9501
:10037000F1F700004FDF85E18A95F1F70000109852
:1003800049DF95E19A95F1F7000088E2A2DF88E065
:10039000A0DFAFDF86E09DDF8C2F9BDFCF9108953C
:1003A000CF93C82F8CE0C9DFA4DFC233E1F018F48B
:1003B000C13331F045C0C33319F1C43341F140C0FA
:1003C00081E192E0ABDF61E080E08BDF8BE192E0E6
:1003D000A5DF60E08AE085DF84E292E09FDF81E3D1
:1003E000809310023FC08BE292E098DF61E080E0F2
:1003F00078DF85E392E092DF82E38093100232C0DF
:1004000080E492E08BDF83E3809310022BC088E4CA
:1004100092E084DF60E088E064DF80E592E07EDFE8
:1004200061E080E05EDF89E592E078DF61E08AE00C
:1004300058DF80E692E072DF84E38093100212C0FE
:1004400087E692E06BDF61E080E04BDF8FE692E0D1
:1004500065DF61E08AE045DF86E792E05FDF80E309
:1004600080931002CF91089523D01ED14AD180E30A
:1004700097DF78947BD08FD0FDCFE0ECF0E09081D7
:1004800095FFFDCF8093C6000895CF93E0ECF0E098
:1004900080818823ECF7C091C600CA3029F08C2FE8
:1004A000ECDF8C2F90E002C08FEF9FEFCF9108958B
:1004B000EEE7F2E080E092E0938382839183808391
:1004C0001092C50087E68093C40088E18093C10044
:1004D00086E08093C20008958FEF88B980910E0264
:1004E00090910F0282309105B1F01CF4019739F020
:1004F00036C083309105D9F0049729F130C08EEFD2
:1005000088B980910E0290910F02019690930F028C
:1005100080930E0208958DEF88B980910E0290911C
:100520000F02019690930F0280930E0208958BEFB5
:1005300088B980910E0290910F02019690930F025C
:1005400080930E02089587EF88B980910E029091F2
:100550000F02019690930F0280930E02089581E09E
:1005600090E090930F0280930E02089526B130E040
:10057000A90140955095407F5527452B59F04FEFE5
:1005800081EE94E0415080409040E1F700C00000CF
:10059000822F932F0895875791098837910508F086
:1005A00082C0FC018827EE58FF4F8F4FBBC081E30C
:1005B00090E0C0D080911002803309F074C082E3D3
:1005C00090E0EECE089584E390E0B4C0089587E310
:1005D00090E0B0C008958AE290E0ACC0089582E354
:1005E00090E0A8C0089585E390E0A4C0089588E352
:1005F00090E0A0C0089580E390E09CD0809110022C
:10060000813319F480E390E0CBDE809110028233D5
:1006100019F480E390E0C4DE80911002833319F472
:1006200082E390E0BDDE80911002843309F03BC08C
:1006300083E390E0B5CE089583E390E07BD0809192
:100640001002833381F584E390E0AACE089589E314
:1006500090E070D080911002803319F481E390E033
:100660009FDE809110028233F1F483E390E098CE14
:10067000089586E390E05EC0089583E290E05AD04A
:1006800080E390E08DCE089581E490E053C008951A
:1006900082E490E04FC0089583E490E04BC0089559
:1006A00084E490E047C0089587B18F6087B980EFF8
:1006B00088B908951F920F920FB60F9211240BB6AE
:1006C0000F922F933F934F935F936F937F938F93EB
:1006D0009F93AF93BF93EF93FF93FEDEFF91EF9154
:1006E000BF91AF919F918F917F916F915F914F914A
:1006F0003F912F910F900BBE0F900FBE0F901F9048
:100700001895E1E8F0E080818C608083EFE6F0E00E
:1007100080818260808384E39CE090938900809351
:1007200088000895EE0FFF1F881F8BBF0790F6917A
:10073000E02D1994609180027091810200C00F93A6
:100740001F93CF93DF93FB01238121FD03C08FEF24
:100750009FEF2CC022FF16C046815781248135812E
:100760004217530744F4A081B1819D012F5F3F4F91
:10077000318320838C93268137812F5F3F4F3783CE
:10078000268314C08B01EC01FB010084F185E02D70
:100790001995892BE1F6D80116968D919C911797A2
:1007A000019617969C938E931697CE01DF91CF9169
:0A07B0001F910F910895F894FFCFF8
:1007BA0000000003000000003D02450200000100A5
:1007CA0030333D57696E646F777300343D47617209
:1007DA0061676500303D4261636B00313D5475725B
:1007EA006E204F6E00323D5475726E204F66660061
:1007FA00333D436F6C6F7200313D57686974650011
:10080A00323D59656C6C6F7700333D426C756500FB
:10081A00343D50696E6B00313D4C69676874003233
:0E082A003D54656D7000393D4E6578740000D8
:00000001FF
