:1000000071C000008EC000008CC000008AC00000DB
:1000100088C0000086C0000084C0000082C00000CC
:1000200080C000007EC000007CC000007AC00000DC
:1000300078C0000076C0000074C0000072C00000EC
:1000400070C00000E1C200006CC000006AC0000087
:1000500068C0000066C0000064C0000062C000000C
:1000600060C000005EC000005CC000005AC000001C
:1000700058C0000056C0000054C0000052C000002C
:1000800050C000004EC000004CC000004AC000003C
:1000900048C0000046C0000044C0000042C000004C
:1000A00040C000003EC000003CC000003AC000005C
:1000B00038C0000036C0000034C0000032C000006C
:1000C00030C000002EC000002CC000002AC000007C
:1000D00028C0000026C0000024C0000022C000008C
:1000E00020C0000011241FBECFEFD1E2DEBFCDBF84
:1000F00000E00CBF12E0A0E0B2E0E2E9FCE000E0CA
:100100000BBF02C007900D92A038B107D9F722E0CB
:10011000A0E8B2E001C01D92A638B207E1F7C8D04E
:10012000B6C56ECF139A000013980895CF93C82FC9
:10013000662311F0169A01C016981598089A099A24
:100140000A9A0C9A1498129811981098CC230CF4CF
:10015000149AC6FD129AC5FD119AC4FD109AE2DFE9
:100160001498129811981098C3FD149AC2FD129A0F
:10017000C1FD119AC0FD109AD5DF109A119A129AFA
:10018000149ACF910895882311F0169A01C01698F9
:10019000159A089809980A980C98139A0000009BE1
:1001A00002C080E101C080E0019980620299806410
:1001B0000499806813980000139A000000998160E8
:1001C0000199826002998460049988601398089567
:1001D00080E0D9DF8823E4F300C000C080E0D3CF03
:1001E0000895CF93C82FF4DF60E08C2F9FDFCF916D
:1001F0000895611103C08058F4CF08958054F1CF61
:10020000089581E0EECF0895CF93C82FE1DFCA3083
:1002100041F4803410F080E001C080E48058E1DFD8
:1002200003C061E08C2F82DFCF910895CF93DF93DD
:10023000EC012196FC018081882321F0E5DF899182
:100240008111FCCFDF91CF910895CF93C82F0E9AE3
:100250000D9A0B9A089A099A0A9A0C9A8FE99FE0CC
:100260000197F1F700C00000119A109A5BDF81EE50
:1002700094E00197F1F700C0000054DF95E19A95F2
:10028000F1F700004FDF85E18A95F1F70000109843
:1002900049DF95E19A95F1F7000088E2A2DF88E056
:1002A000A0DFAFDF86E09DDF8C2F9BDFCF9108952D
:1002B00088D0A4D1D0D180E305D0DED17894DFD02E
:1002C000F3D0FDCFCF93C82F8CE0BFDF9ADFC233CE
:1002D000E1F018F4C13331F045C0C33319F1C43330
:1002E00041F140C081E192E0A1DF61E080E081DF87
:1002F0008BE192E09BDF60E08AE07BDF84E292E0CA
:1003000095DF81E3809310023FC08BE292E08EDFA5
:1003100061E080E06EDF85E392E088DF82E3809336
:10032000100232C080E492E081DF83E38093100208
:100330002BC088E492E07ADF60E088E05ADF80E555
:1003400092E074DF61E080E054DF89E592E06EDFE7
:1003500061E08AE04EDF80E692E068DF84E380932C
:10036000100212C087E692E061DF61E080E041DFC9
:100370008FE692E05BDF61E08AE03BDF86E792E0B8
:1003800055DF80E380931002CF910895E0ECF0E018
:10039000908195FFFDCF8093C6000895CF93E0EC48
:1003A000F0E080818823ECF7C091C600CA3029F0C4
:1003B0008C2FECDF8C2F90E002C08FEF9FEFCF915E
:1003C0000895E0E8F2E080E092E0938382839183F5
:1003D00080831092C50087E68093C40088E18093F3
:1003E000C10086E08093C20008958FEF88B98091A4
:1003F0000E0290910F0282309105B1F01CF401972A
:1004000039F036C083309105D9F0049729F130C016
:100410008EEF88B980910E0290910F020196909311
:100420000F0280930E0208958DEF88B980910E021D
:1004300090910F02019690930F0280930E020895FF
:100440008BEF88B980910E0290910F0201969093E4
:100450000F0280930E02089587EF88B980910E02F3
:1004600090910F02019690930F0280930E020895CF
:1004700081E090E090930F0280930E02089526B1E0
:1004800030E0A90140955095407F5527452B59F004
:100490004FEF81EE94E0415080409040E1F700C082
:1004A0000000822F932F08958E3D910509F45DC0C1
:1004B0004CF48D37910509F46FC08B3B910509F41D
:1004C0008BC008958D3E910521F18E3E910529F056
:1004D0008B3E910509F091C031C081E390E025D1B8
:1004E00080911002803319F482E390E0EBDE80917A
:1004F0001002823309F4D7D080911002843309F0BE
:100500007CC04FEF50E06FEF70E08FEF90E0EDC0F8
:10051000089582E390E009D180911002823309F4BA
:10052000D4D080911002843309F067C040E050E0DD
:1005300064E670E08FEF90E0D8C0089583E390E028
:10054000F4D080911002833319F484E390E0BADE92
:1005500080911002843309F050C04FEF50E060E00A
:1005600070E080E090E0C1C0089584E390E0DDD0C9
:1005700080911002803319F485E390E0A3DE80912E
:100580001002843309F039C046E950E060E070E0C1
:100590008FEF90E0AAC0089580E390E0C6D08091EC
:1005A0001002813319F480E390E08CDE8091100218
:1005B000823319F480E390E085DE8091100283336A
:1005C00019F482E390E07EDE809110028433A9F476
:1005D00083E390E077CE089589E390E0A6D0809100
:1005E0001002803319F481E390E06CDE80911002F8
:1005F000823319F483E390E065CE089587B18F606C
:1006000087B980EF88B908951F920F920FB60F92A5
:1006100011240BB60F922F933F934F935F936F93D9
:100620007F938F939F93AF93BF93EF93FF93DDDE01
:10063000FF91EF91BF91AF919F918F917F916F91BA
:100640005F914F913F912F910F900BBE0F900FBE76
:100650000F901F901895E1E8F0E080818C60808316
:10066000EFE6F0E080818260808384E39CE09093F9
:100670008900809388000895E0E9F0E0808180623D
:10068000808380818068808380818860808380818E
:1006900081608083E1E9F0E08081886080838081EF
:1006A0008360808308958DB188638DB98FEF90E06A
:1006B000909399008093980090939B0080939A0068
:1006C00090939D0080939C0008958DB1877C8DB997
:1006D0008DB11F928F938DE792E09F938F9312D0ED
:1006E0000F900F900F900F90089590939900809322
:1006F000980070939B0060939A0050939D004093E4
:100700009C000895CF93DF93CDB7DEB7AE014A5F6B
:100710005F4FFA0161917191AF01809182029091D6
:10072000830208D0DF91CF91089560918202709189
:10073000830213C22F923F924F925F926F927F92E9
:100740008F929F92AF92BF92CF92DF92EF92FF92E1
:100750000F931F93CF93DF93CDB7DEB72B970FB6D1
:10076000F894DEBF0FBECDBF6C017B018A01FC0196
:1007700017821682838181FFBFC1CE0101963C01A1
:10078000F6019381F70193FD859193FF81917F019C
:10079000882309F4ADC1853239F493FD859193FF27
:1007A00081917F01853221F4B60190E0D6D1E8CF66
:1007B000912C212C312CFFE1F315D8F08B3279F0FC
:1007C00038F4803279F08332A1F4232D20611DC0EA
:1007D0008D3261F0803369F4232D216016C0832DA2
:1007E0008260382EE32DE4603E2E2AC0F32DF8609F
:1007F0001DC037FC2DC020ED280F2A3040F08E326E
:10080000B9F436FC75C1232D2064322E19C036FE92
:1008100006C08AE0989E200D1124922E11C0EAE0B5
:100820002E9E200D1124222EF32DF0623F2E08C0A3
:100830008C3621F4832D8068382E02C0883641F42E
:10084000F70193FD859193FF81917F018111B3CFD2
:10085000982F9F7D9554933028F40C5F1F4F9FE392
:1008600099830DC0833631F0833771F0833509F0F9
:1008700055C020C0F801808189830E5F1F4F8824F6
:100880008394912C530112C02801F2E04F0E511CA9
:10089000F801A080B18036FE03C0692D70E002C06F
:1008A0006FEF7FEFC5014ED14C018201F32DFF7731
:1008B0003F2E15C0280122E0420E511CF801A080F5
:1008C000B18036FE03C0692D70E002C06FEF7FEF8C
:1008D000C5012DD14C01F32DF0683F2E820133FC70
:1008E00019C0822D90E088169906A0F4B60180E226
:1008F00090E033D12A94F5CFF50137FC859137FE8E
:1009000081915F01B60190E028D121102A9421E065
:10091000821A91088114910479F7E1C0843611F0AC
:10092000893639F5F80137FE07C06081718182810F
:1009300093810C5F1F4F08C060817181072E000CEE
:10094000880B990B0E5F1F4FF32DFF763F2E97FFFD
:1009500009C090958095709561957F4F8F4F9F4FFF
:10096000F0683F2E2AE030E0A30133D1882E8618AC
:1009700044C0853731F4232D2F7EB22E2AE030E09B
:1009800025C0932D997FB92E8F36C1F018F4883584
:1009900079F0AEC0803719F0883721F0A9C0E92F6F
:1009A000E061BE2EB4FE0DC0FB2DF460BF2E09C069
:1009B00034FE0AC0292F2660B22E06C028E030E09F
:1009C00005C020E130E002C020E132E0F801B7FECE
:1009D00007C060817181828193810C5F1F4F06C0C7
:1009E0006081718180E090E00E5F1F4FA301F1D024
:1009F000882E8618FB2DFF773F2E36FE0DC0232D47
:100A00002E7FA22E891458F434FE0BC032FC09C08C
:100A1000832D8E7EA82E05C0B82CA32C03C0B82C25
:100A200001C0B92CA4FE0FC0FE01E80DF11D8081AC
:100A3000803321F49A2D997EA92E09C0A2FE06C00A
:100A4000B394B39404C08A2D867809F0B394A3FCC0
:100A500010C0A0FE06C0B21480F4280C922C9B1883
:100A60000DC0B21458F4B60180E290E076D0B39491
:100A7000F8CFB21418F42B1802C0982C212CA4FE25
:100A80000FC0B60180E390E068D0A2FE16C0A1FCC2
:100A900003C088E790E002C088E590E0B6010CC092
:100AA0008A2D867851F0A1FE02C08BE201C080E25F
:100AB000A7FC8DE2B60190E050D0891430F4B60165
:100AC00080E390E04AD09A94F8CF8A94F301E80D3D
:100AD000F11D8081B60190E040D08110F6CF222038
:100AE00009F44ECEB60180E290E037D02A94F7CFD9
:100AF000F6018681978102C08FEF9FEF2B960FB68C
:100B0000F894DEBF0FBECDBFDF91CF911F910F9143
:100B1000FF90EF90DF90CF90BF90AF909F908F901D
:100B20007F906F905F904F903F902F900895FC01C1
:100B30000590615070400110D8F7809590958E0F08
:100B40009F1F0895FC016150704001900110D8F77B
:100B5000809590958E0F9F1F08950F931F93CF93AD
:100B6000DF93FB01238121FD03C08FEF9FEF2CC09A
:100B700022FF16C0468157812481358142175307D1
:100B800044F4A081B1819D012F5F3F4F31832083C9
:100B90008C93268137812F5F3F4F3783268314C084
:100BA0008B01EC01FB010084F185E02D1995892B67
:100BB000E1F6D80116968D919C911797019617969C
:100BC0009C938E931697CE01DF91CF911F910F9139
:100BD0000895FA01AA27283051F1203181F1E894D3
:100BE0006F936E7F6E5F7F4F8F4F9F4FAF4FB1E020
:100BF0003ED0B4E03CD0670F781F891F9A1FA11D1B
:100C0000680F791F8A1F911DA11D6A0F711D811D1B
:100C1000911DA11D20D009F468943F912AE0269FE0
:100C200011243019305D3193DEF6CF010895462F3F
:100C30004770405D4193B3E00FD0C9F7F6CF462F20
:100C40004F70405D4A3318F0495D31FD4052419389
:100C500002D0A9F7EACFB4E0A69597958795779546
:100C60006795BA95C9F700976105710508959B01CD
:100C7000AC010A2E06945795479537952795BA9556
:100C8000C9F7620F731F841F951FA01D0895F89464
:020C9000FFCF94
:100C92000000000300000000C601CE0100000100B8
:100CA20030333D57696E646F777300343D4761722C
:100CB20061676500303D4261636B00313D5475727E
:100CC2006E204F6E00323D5475726E204F66660084
:100CD200333D436F6C6F7200313D57686974650034
:100CE200323D59656C6C6F7700333D426C7565001F
:100CF200343D50696E6B00313D4C69676874003257
:100D02003D54656D7000393D4E6578740025640070
:00000001FF
